:020000040000FA
:0200000004D02A
:080008004FD0D39CD3880F0EEA
:10001000C16E836A956AF00E926E9396F092F088A4
:10002000F28E0F0EC16E1C0EBD6E070ECA6EC20E92
:10003000CB6E9494030EF76E130EBE6E160E036E07
:10004000060E026E04C0F6FF0800F5CF80FF01C067
:10005000F6FF0800F5CF83FF4EEC00F0042A012ADA
:1000600001C0E8FF030AD8B406D004C0E8FF130AB1
:10007000D8B401D0E7D7000E016E100E046E040E46
:10008000806E03C0F6FF0800F5CF83FF02C0F6FFC5
:100090000800F5CFBEFF4EEC00F0D4D77F0E006E07
:1000A0000000002EFDD71200F09203C0E8FF1F0AE7
:1000B000D8B40CD0032A022A02C0F6FF0800F5CFFC
:1000C000BEFF03C0E8FF1F0AD8A41000060EE8CF49
:0A00D00002F0160EE8CF03F0100056
:04030000A1A7C000F1
:0A03060013273A4E6175889CAF0082
:0403100001020800DE
:0A031600F9A4B0999282B880980013
:020000040030CA
:04000000000A181EBC
:02000500018177
:060008000FC00FE00F40E5
:00000001FF
