:020000040000FA
:10000000D39C0F0EC16E836A956AC00E836E4BEC53
:1000100000F0F90E836E4BEC00F0A40E836E4BECF7
:1000200000F0B00E836E4BEC00F0990E836E4BEC3B
:1000300000F0920E836E4BEC00F0820E836E4BEC60
:1000400000F0B80E836E4BEC00F0800E836E4BEC2C
:1000500000F0980E836E4BEC00F0880E836E4BEC34
:1000600000F0830E836E4BEC00F0C60E836E4BECFB
:1000700000F0A10E836E4BEC00F0860E836E4BEC0D
:1000800000F08E0E836E4BEC00F0FF0E006E000051
:10009000002EFDD712000A0E016E45EC00F0012E75
:0400A000FCD7120077
:020000040030CA
:04000000000A181EBC
:02000500018177
:060008000FC00FE00F40E5
:00000001FF
