:020000040000FA
:0200000004D02A
:0800080037D0D38CD38AD398C2
:100010000F0EC16E836A956A9396F00EF26E950E7E
:10002000D56EE10ED76E7C0ED66EF66A030EF76EB5
:10003000F86A050ECB6E070ECA6E9D8200A201D033
:100040000CD00900F5CF83FF4DEC00F0F650100AFC
:10005000D8A4F4D7F66A1EEF00F00A00F5CF83FFAC
:100060004DEC00F0F650FF0AD8A4E8D70F0EF66E5C
:10007000030EF76E1EEF00F0F2A407D0F294C20E4A
:10008000D76EF70ED66E00801000F2A203D0F29267
:10009000007210009E928176100000A0FED70090A2
:0200A00012004C
:10030000C0F9A4B0999282B880988883C6A1868EDD
:020000040030CA
:04000000000A181EBC
:02000500018177
:060008000FC00FE00F40E5
:00000001FF
